:1000000033C000003AC0000043C0000035C000000B
:1000100033C0000031C000002FC000002DC0000020
:100020002BC0000029C0000027C0000025C0000030
:1000300023C0000021C000001FC000001DC0000040
:100040001BC0000019C0000017C0000015C0000050
:1000500013C0000011C000000FC000000DC0000060
:100060000BC0000009C0000011241FBECFEFD8E074
:10007000DEBFCDBF1BD02DC0C3CF1F920F920FB6D6
:100080000F92112415B80F900FBE0F901F90189566
:100090001F920F920FB60F9211248F938FEF85B995
:1000A0008F910F900FBE0F901F9018958FEF84B90E
:1000B00085B952985A9A53985B9AE9E6F0E08081A4
:1000C00081608083808184608083E89AE99A789453
:0600D000FFCFF894FFCF02
:00000001FF
