:1000000033C000004CC000004AC0000048C00000DF
:1000100046C0000044C0000042C0000040C00000D4
:100020003EC000003CC000003AC0000038C00000E4
:1000300036C00000E2C1000032C0000030C0000045
:100040002EC000002CC0000003C1000028C000002A
:1000500026C0000024C0000022C0000020C0000014
:100060001EC000001CC0000011241FBECFEFD8E04E
:10007000DEBFCDBF11E0A0E0B1E0E8E0F5E002C0F6
:1000800005900D92A230B107D9F721E0A2E0B1E0CE
:1000900001C01D92A73DB207E1F7D8D133C2B0CF5E
:1000A000CF93DF9327E030E0082E000C990BA7E0F8
:1000B000B0E0442379F0FD01E21BF30BEC0102C038
:1000C000D595C795EA95E2F7C0FF02C05D9A0EC0CC
:1000D0005D980CC0FC01022E02C0F595E7950A94CC
:1000E000E2F7E0FF02C05D9A01C05D985C9A5C98FF
:1000F00021503109F0F6662311F05B9A5B98DF918D
:10010000CF910895CF93C82F40E060E0892FC8DFDA
:1001100040E060E08C2FC4DF5B9A5B98CF9108953C
:100120008AB188638AB9089588E091E09093D101FB
:100130008093D0019093D3018093D2011092D40187
:100140000895E091D201F091D301AF014F5F5F4F6D
:100150002091D0013091D1014217530711F128505D
:10016000314019F44F5C5140F1F080838091D2010D
:100170009091D301019621E08F3C920728F490934F
:10018000D3018093D20106C088E091E09093D3011F
:100190008093D201E4EDF1E080818F5F808381E084
:1001A000089580E0089580E00895E091D001F091F5
:1001B000D1012091D2013091D301E217F307F1F080
:1001C0002081FC0120838091D0019091D101019682
:1001D000F1E08F3C9F0728F49093D1018093D001E8
:1001E00006C088E091E09093D1018093D001E4EDC6
:1001F000F1E080818150808381E0089580E008955E
:100200001092C50080E18093C400E0ECF0E08081B2
:100210008D7F8083E1ECF0E0808180688083808145
:1002200088618083E2ECF0E08081866080830895BD
:10023000E0ECF0E0808185FFFDCF8091C60008955D
:10024000E0ECF0E0908195FFFDCF8093C60008952B
:100250001F920F920FB60F9211242F933F934F933B
:100260005F936F937F938F939F93AF93BF93EF931E
:10027000FF938091D401873920F083E1E1DF109270
:100280000101D6DF5EDFFF91EF91BF91AF919F91AA
:100290008F917F916F915F914F913F912F910F902F
:1002A0000FBE0F901F901895CF93C82F8D7F81316F
:1002B00011F0CF3031F48FE0C3DF8C2F8095C0DF99
:1002C00002C08C2FBDDFCF91089529B193B1207C5E
:1002D000892F8F73822B08958AB18F738AB984B165
:1002E000807C84B9109204010895F6DF529A5A9ADC
:1002F0000895EF92FF920F931F93CF93DF93E82E11
:10030000F92E8B01809104018111E6DFCE2DDF2DC6
:10031000C017D10778F4CE019F77F4DED6DFC4DFB3
:100320008FE891E00197F1F700C000002196C01717
:10033000D10788F3DF91CF911F910F91FF90EF903C
:100340000895CF93DF93C82F8BB18F738BB98BB187
:100350009C2F907C892B8BB985B1807C85B985B128
:100360009C2F9F73892B85B95A9887E493E0019756
:10037000F1F700C000005A9A8FE39CE90197F1F76A
:1003800000C00000A9DFD0E0C095D09502C08FEF7B
:100390008BDF9BDF90E08C179D07C9F3DF91CF9136
:1003A00008958AB1806C8AB984B18F6384B981E081
:1003B000809304010895CF93DF93EC0180910401B1
:1003C000811101C0EEDF2881898190E09068922B35
:1003D00099DE8A81B6DFDF91CF9108951092800077
:1003E00085E08093810085E49DE090938500809373
:1003F000840081E080936F0008951F920F920FB6E2
:100400000F9211240F900FBE0F901F90189580919E
:100410000501813029F48093030185E545CF0895D6
:10042000823099F481E080930201E5E0F1E02281DD
:100430008091D5019091D601822B2181922B9093AE
:10044000D6018093D50185E52FCF089569DED8DEEA
:100450004CDFC4DF69DE789485E526DFC4EDD1E0AA
:1004600011E088818330E8F390910101911106C079
:10047000843120F41093010181E1E2DEF89485E0FB
:1004800091E093DE86E091E090DE87E091E08DDE02
:10049000789480910001882341F080910501853591
:1004A00001F71092000100DFDCCF80910301882367
:1004B00079F0809105018F3F39F41093000110927B
:1004C000030185E5F1DECDCF85E091E074DFC9CF92
:1004D000809102018823A1F0E5E0F1E0618170E004
:1004E000762F66278281682B8091D5019091D60165
:1004F00000DF109300011092020185E5D5DEB1CF37
:0805000086DFAFCFF894FFCFB6
:020508000101EF
:00000001FF
