S012000050726F6772616D6D65722E73726563F6
S113000033C000004CC000004AC0000048C00000DB
S113001046C0000044C0000042C0000040C00000D0
S11300203EC000003CC000003AC0000038C00000E0
S113003036C0000034C0000032C0000030C00000F0
S11300402EC000002CC000003CC1000028C00000ED
S113005026C0000024C0000022C0000020C0000010
S11300601EC000001CC0000011241FBECFEFD8E04A
S1130070DEBFCDBF11E0A0E0B1E0E6E7F5E002C0ED
S113008005900D92A230B107D9F721E0A2E0B1E0CA
S113009001C01D92A637B207E1F746D26AC2B0CFBB
S11300A08AB188638AB90895CF93DF9327E030E05B
S11300B090E0A7E0B0E0442379F0FD01E21BF30BEC
S11300C0EC0102C0D595C795EA95E2F7C0FF02C0DE
S11300D05D9A0EC05D980CC0FC01022E02C0F5951D
S11300E0E7950A94E2F7E0FF02C05D9A01C05D98CB
S11300F05C9A5C9821503109F0F6662311F05B9A02
S11301005B98DF91CF910895CF93DF93D82FC62FBB
S1130110462F60E0892FC8DF4C2F60E08D2FC4DFAD
S11301205B9A5B98DF91CF910895E0ECF0E09081C9
S113013095FFFDCF8093C60008958AB18F738AB965
S113014084B1807C84B91092050108951F93CF93E4
S1130150DF9300D0CDB7DEB7182F7A8369838091FF
S11301600501811109C08AB1806C8AB984B18F6399
S113017084B981E08093050189819A8160E0C4DFBC
S113018089819A8190930401809303018BB18F73C9
S11301908BB98BB1912F907C892B8BB985B1807CE5
S11301A085B985B11F73182B15B95A985A9A0F90AF
S11301B00F90DF91CF911F9108958BE091E0909380
S11301C0700180936F01909372018093710110927A
S11301D073010895E0917101F0917201AF014F5FD5
S11301E05F4F20916F01309170014217530711F155
S11301F02B50314019F44E565140F1F080838091D8
S1130200710190917201019621E08E36920728F4D3
S1130210909372018093710106C08BE091E09093FA
S1130220720180937101E3E7F1E080818F5F808345
S113023081E0089580E0089580E00895E0916F01E1
S1130240F09170012091710130917201E217F3076E
S1130250F1F02081FC01208380916F019091700165
S11302600196F1E08E369F0728F4909370018093F5
S11302706F0106C08BE091E09093700180936F0151
S1130280E3E7F1E080818150808381E0089580E09C
S113029008951092C50087E68093C400E0ECF0E076
S11302A080818D7F8083E1ECF0E0808180688083B1
S11302B0808188618083E2ECF0E0808186608083C5
S11302C008951F920F920FB60F9211242F933F930C
S11302D04F935F936F937F938F939F93AF93BF934A
S11302E0EF93FF93E0ECF0E0808185FFFDCF8091F8
S11302F0C60070DF80917301873420F083E115DF3D
S113030010920001FF91EF91BF91AF919F918F9156
S11303107F916F915F914F913F912F910F900FBEFD
S11303200F901F901895CF93C82F8FEE8C0F8330AA
S113033020F0CF3011F0C53531F48FE0F6DE8C2F8C
S11303408095F3DE02C08C2FF0DECF910895F5DEA8
S1130350529A5A9A0895CF93DF9300D0CDB7DEB75F
S1130360FC018081218130E03068382B3A83298375
S1130370809103019091040129813A81282739272A
S1130380207C3F77232B79F469817A818281DEDEB8
S113039080917301833088F48FE39CE90197F1F72E
S11303A000C000000AC08FE39CE90197F1F700C088
S11303B0000069817A818281C9DE0F900F90DF91FC
S11303C0CF910895EF92FF920F931F93CF93DF93F2
S11303D000D0CDB7DEB77C018B018091050181117E
S11303E0ACDEFA82E98289819A8180179107E0F470
S11303F089819A8160E09F7787DE29B193B1207C5F
S1130400892F8F73822B8FDF8FE891E00197F1F7AB
S113041000C0000089819A8101969A838983898129
S11304209A818017910720F30F900F90DF91CF915D
S11304301F910F91FF90EF900895809102018823FE
S113044069F0809108018F3F21F088E091E083CF2B
S113045008951092020185E568CE089580910801FF
S1130460813029F48093020185E55FCE08958430BC
S1130470D1F420917401309175018091060190911D
S113048007012817390760F460910601709107018C
S1130490809174019091750195DF85E546CE0895AC
S11304A082E143CE08958230E9F4109275011092EE
S11304B074018091740190917501E8E0F1E021816B
S11304C0922B9093750180937401809174019091A3
S11304D075012281822B909375018093740185E5C7
S11304E024CE08958630E9F4109207011092060193
S11304F08091060190910701E8E0F1E02181922BBF
S11305009093070180930601809106019091070161
S11305102281822B909307018093060185E505CE05
S1130520089582E102CE0895BBDDB3DE10DF45DE1F
S1130530789485E5FADDC3E7D1E011E0809100010C
S1130540811107C088818A3020F41093000181E171
S1130550ECDD8881833090F3F89488E091E06EDEDE
S113056089E091E06BDE8AE091E068DE789465DFF3
S1090570E5CFF894FFCF73
S105057601007E
S9030000FC
