S012000050726F6772616D6D65722E73726563F6
S113000033C000004CC000004AC0000048C00000DB
S113001046C0000044C0000042C0000040C00000D0
S11300203EC000003CC000003AC0000038C00000E0
S113003036C0000034C0000032C0000030C00000F0
S11300402EC000002CC0000003C1000028C0000026
S113005026C0000024C0000022C0000020C0000010
S11300601EC000001CC0000011241FBECFEFD8E04A
S1130070DEBFCDBF11E0A0E0B1E0ECEDF4E002C0E2
S113008005900D92A230B107D9F721E0A2E0B1E0CA
S113009001C01D92A83DB207E1F7F9D11DC2B0CF4E
S11300A0CF93DF9327E030E0082E000C990BA7E0F4
S11300B0B0E0442379F0FD01E21BF30BEC0102C034
S11300C0D595C795EA95E2F7C0FF02C05D9A0EC0C8
S11300D05D980CC0FC01022E02C0F595E7950A94C8
S11300E0E2F7E0FF02C05D9A01C05D985C9A5C98FB
S11300F021503109F0F6662311F05B9A5B98DF9189
S1130100CF910895CF93C82F40E060E0892FC8DFD6
S113011040E060E08C2FC4DF5B9A5B98CF91089538
S11301208AB188638AB9089589E091E09093D201F5
S11301308093D1019093D4018093D3011092D5017F
S11301400895E091D301F091D401AF014F5F5F4F67
S11301502091D1013091D2014217530711F1295056
S1130160314019F4405D5140F1F080838091D30116
S11301709091D401019621E0803D920728F4909358
S1130180D4018093D30106C089E091E09093D40117
S11301908093D301E5EDF1E080818F5F808381E07E
S11301A0089580E0089580E00895E091D101F091F0
S11301B0D2012091D3013091D401E217F307F1F079
S11301C02081FC0120838091D1019091D20101967C
S11301D0F1E0803D9F0728F49093D2018093D101F0
S11301E006C089E091E09093D2018093D101E5EDBE
S11301F0F1E080818150808381E0089580E008955A
S11302001092C50080E18093C400E0ECF0E08081AE
S11302108D7F8083E1ECF0E0808180688083808141
S113022088618083E2ECF0E08081866080830895B9
S1130230E0ECF0E0808185FFFDCF8091C600089559
S1130240E0ECF0E0908195FFFDCF8093C600089527
S11302501F920F920FB60F9211242F933F934F9337
S11302605F936F937F938F939F93AF93BF93EF931A
S1130270FF938091D501873920F083E1E1DF10926B
S11302800001D6DF5EDFFF91EF91BF91AF919F91A7
S11302908F917F916F915F914F913F912F910F902B
S11302A00FBE0F901F901895CF93C82F8FEE8C0F11
S11302B0833020F0CF3011F0C53531F48FE0C0DF4A
S11302C08C2F8095BDDF02C08C2FBADFCF910895AB
S11302D029B193B1207C892F8F73822B08958AB121
S11302E08F738AB984B1807C84B910920301089514
S11302F0F6DF529A5A9A0895EF92FF920F931F9342
S1130300CF93DF93E82EF92E8B01809103018111A5
S1130310E6DFCE2DDF2DC017D10778F4CE019F770D
S1130320F1DED6DFC1DF8FE891E00197F1F700C07D
S113033000002196C017D10788F3DF91CF911F9158
S11303400F91FF90EF900895CF93DF93C82F8BB157
S11303508F738BB98BB19C2F907C892B8BB985B112
S1130360807C85B985B19C2F9F73892B85B95A9858
S113037087E493E00197F1F700C000005A9A8FE3F5
S11303809CE90197F1F700C00000A9DFD0E0C09517
S1130390D09502C08FEF88DF9BDF90E08C179D071C
S11303A0C9F3DF91CF9108958AB1806C8AB984B181
S11303B08F6384B981E0809303010895CF93DF9321
S11303C0EC0180910301811101C0EEDF2881898154
S11303D090E09068922B96DE8A81B6DFDF91CF9110
S11303E0089580910201882361F0809106018F3F76
S11303F021F086E091E0E2DF04C01092020185E57D
S11304001FDF80910601813029F48093020185E584
S113041017CF0895843091F48091D6019091D7013B
S113042060910401709105018617970720F464DF39
S113043085E506CF089582E103CF0895823089F4DB
S1130440E6E0F1E022818091D6019091D701822BE0
S11304502181922B9093D7018093D60185E5F0CE2C
S11304600895863089F4E6E0F1E022818091040168
S113047090910501822B2181922B90930501809309
S1130480040185E5DDCE089582E1DACE089548DEE3
S1130490B7DE2EDF49DE789485E5D2DEC5EDD1E006
S11304A011E080910001811107C08881843120F41A
S11304B01093000181E1C4DE8881833090F3F894C5
S11304C086E091E072DE87E091E06FDE88E091E003
S10F04D06CDE789486DFE5CFF894FFCF53
S10504DC010019
S9030000FC
