:1000000033C000004CC000004AC0000048C00000DF
:1000100046C0000044C0000042C0000040C00000D4
:100020003EC000003CC000003AC0000038C00000E4
:1000300036C0000034C0000032C0000030C00000F4
:100040002EC000002CC00000F5C0000028C0000039
:1000500026C0000024C0000022C0000020C0000014
:100060001EC000001CC0000011241FBECFEFD8E04E
:10007000DEBFCDBF11E0A0E0B1E0E0ECF2E002C0F5
:1000800005900D92A230B107D9F721E0A2E0B1E0CE
:1000900001C01D92A830B207E1F79ED00FC1B0CFCA
:1000A00020E030E0082E000C990BAC01022E02C0BB
:1000B000559547950A94E2F740FF02C05D9A01C04A
:1000C0005D985C9A5C982F5F3F4F2830310569F747
:1000D0005B9A5B9808958AB188638AB908951092F3
:1000E000C50087E68093C400E0ECF0E080818D7F5E
:1000F0008083E1ECF0E0808180688083808188618A
:100100008083E2ECF0E080818660808378940895BB
:10011000E0ECF0E0808185FFFDCF8091C60008957E
:10012000E0ECF0E0908195FFFDCF8093C60008954C
:100130009BB19F739BB99BB1282F207C922B9BB9BD
:1001400095B19F73892385B9089529B193B1207C16
:10015000892F8F73822B08958AB18F738AB984B1E6
:10016000807C84B91092040108950F931F93CF935C
:10017000DF93EC018B01809104018111EDDFC01749
:10018000D10754F480E08CDF8C2F8ADFDEDFC8DFFC
:100190002196C017D107B4F3DF91CF911F910F9132
:1001A00008958AB1806C8AB984B18F6384B981E083
:1001B000809304010895CF93DF93EC0180910401B3
:1001C000811101C0EEDF88816BDF898169DF8A815F
:1001D000AFDFDF91CF9108957EDF81DFBDDF85E561
:1001E0005FDFC0E08C2F5CDF8C2F5ADF2FEF81EEBA
:1001F00094E0215080409040E1F700C00000CF5FC4
:10020000F1CF80910501813019F4809303010895A5
:10021000823041F4E5E0F1E0628170E0818190E0BC
:10022000A4CF0895853529F481E0809300011092D0
:10023000030108951F920F920FB60F9211242F936E
:100240003F934F935F936F937F938F939F93AF935E
:10025000BF93EF93FF935CDF90910001992329F006
:100260008535D9F41092000118C0909102019330A5
:1002700048F4E92FF0E0EB5FFE4F80839F5F90939F
:1002800002010BC080910301882321F085E091E0F9
:1002900092DF01C0B6DF10920201FF91EF91BF9192
:1002A000AF919F918F917F916F915F914F913F910E
:1002B0002F910F900FBE0F901F901895F894FFCFBD
:0202C00001003B
:00000001FF
